{
    "_format": "hh-sol-artifact-1",
    "contractName": "WavePortal",
    "sourceName": "contracts/WavePortal.sol",
    "abi": [
        {
            "inputs": [],
            "stateMutability": "nonpayable",
            "type": "constructor"
        },
        {
            "inputs": [
                {
                    "internalType": "address",
                    "name": "data",
                    "type": "address"
                }
            ],
            "name": "addData",
            "outputs": [],
            "stateMutability": "nonpayable",
            "type": "function"
        },
        {
            "inputs": [],
            "name": "getTotalWaves",
            "outputs": [
                {
                    "internalType": "uint256",
                    "name": "",
                    "type": "uint256"
                }
            ],
            "stateMutability": "view",
            "type": "function"
        },
        {
            "inputs": [],
            "name": "lengthCount",
            "outputs": [
                {
                    "internalType": "uint256",
                    "name": "",
                    "type": "uint256"
                }
            ],
            "stateMutability": "view",
            "type": "function"
        },
        {
            "inputs": [],
            "name": "wave",
            "outputs": [],
            "stateMutability": "nonpayable",
            "type": "function"
        }
    ],
    "bytecode": "0x60806040523480156200001157600080fd5b5060008081905550620000646040518060400160405280601381526020017f536d61727420436f6e7472616374205465737400000000000000000000000000815250620000b860201b6200028f1760201c565b620000b26040518060400160405280602081526020017f4e65772053657373696f6e2e2057617665732063757272656e746c792061743a8152506000546200015b60201b620003281760201c565b62000341565b6200015881604051602401620000cf91906200027c565b6040516020818303038152906040527f41304fac000000000000000000000000000000000000000000000000000000007bffffffffffffffffffffffffffffffffffffffffffffffffffffffff19166020820180517bffffffffffffffffffffffffffffffffffffffffffffffffffffffff83818316178352505050506200020160201b60201c565b50565b620001fd828260405160240162000174929190620002a0565b6040516020818303038152906040527f9710a9d0000000000000000000000000000000000000000000000000000000007bffffffffffffffffffffffffffffffffffffffffffffffffffffffff19166020820180517bffffffffffffffffffffffffffffffffffffffffffffffffffffffff83818316178352505050506200020160201b60201c565b5050565b60008151905060006a636f6e736f6c652e6c6f679050602083016000808483855afa5050505050565b60006200023782620002d4565b620002438185620002df565b935062000255818560208601620002fa565b620002608162000330565b840191505092915050565b6200027681620002f0565b82525050565b600060208201905081810360008301526200029881846200022a565b905092915050565b60006040820190508181036000830152620002bc81856200022a565b9050620002cd60208301846200026b565b9392505050565b600081519050919050565b600082825260208201905092915050565b6000819050919050565b60005b838110156200031a578082015181840152602081019050620002fd565b838111156200032a576000848401525b50505050565b6000601f19601f8301169050919050565b61085280620003516000396000f3fe608060405234801561001057600080fd5b506004361061004c5760003560e01c806366a76680146100515780636fe15b441461006d5780637ef4f663146100775780639a2cdc0814610095575b600080fd5b61006b60048036038101906100669190610537565b6100b3565b005b610075610119565b005b61007f610237565b60405161008c9190610654565b60405180910390f35b61009d610244565b6040516100aa9190610654565b60405180910390f35b6001819080600181540180825580915050600190039060005260206000200160009091909190916101000a81548173ffffffffffffffffffffffffffffffffffffffff021916908373ffffffffffffffffffffffffffffffffffffffff16021790555050565b600160008082825461012b919061068b565b925050819055506101716040518060400160405280600d81526020017f2573206861732077617665642100000000000000000000000000000000000000815250336103c4565b61017a336100b3565b6000610184610237565b90506101a86040518060600160405280602c81526020016107f1602c913982610328565b60005b8181101561023357610220600182815481106101f0577f4e487b7100000000000000000000000000000000000000000000000000000000600052603260045260246000fd5b9060005260206000200160009054906101000a900473ffffffffffffffffffffffffffffffffffffffff16610460565b808061022b90610750565b9150506101ab565b5050565b6000600180549050905090565b60006102876040518060400160405280601081526020017f5765206861766520257320776176657300000000000000000000000000000000815250600054610328565b600054905090565b610325816040516024016102a391906105d2565b6040516020818303038152906040527f41304fac000000000000000000000000000000000000000000000000000000007bffffffffffffffffffffffffffffffffffffffffffffffffffffffff19166020820180517bffffffffffffffffffffffffffffffffffffffffffffffffffffffff83818316178352505050506104f9565b50565b6103c0828260405160240161033e929190610624565b6040516020818303038152906040527f9710a9d0000000000000000000000000000000000000000000000000000000007bffffffffffffffffffffffffffffffffffffffffffffffffffffffff19166020820180517bffffffffffffffffffffffffffffffffffffffffffffffffffffffff83818316178352505050506104f9565b5050565b61045c82826040516024016103da9291906105f4565b6040516020818303038152906040527f319af333000000000000000000000000000000000000000000000000000000007bffffffffffffffffffffffffffffffffffffffffffffffffffffffff19166020820180517bffffffffffffffffffffffffffffffffffffffffffffffffffffffff83818316178352505050506104f9565b5050565b6104f68160405160240161047491906105b7565b6040516020818303038152906040527f2c2ecbc2000000000000000000000000000000000000000000000000000000007bffffffffffffffffffffffffffffffffffffffffffffffffffffffff19166020820180517bffffffffffffffffffffffffffffffffffffffffffffffffffffffff83818316178352505050506104f9565b50565b60008151905060006a636f6e736f6c652e6c6f679050602083016000808483855afa5050505050565b600081359050610531816107d9565b92915050565b60006020828403121561054957600080fd5b600061055784828501610522565b91505092915050565b610569816106e1565b82525050565b600061057a8261066f565b610584818561067a565b935061059481856020860161071d565b61059d816107c8565b840191505092915050565b6105b181610713565b82525050565b60006020820190506105cc6000830184610560565b92915050565b600060208201905081810360008301526105ec818461056f565b905092915050565b6000604082019050818103600083015261060e818561056f565b905061061d6020830184610560565b9392505050565b6000604082019050818103600083015261063e818561056f565b905061064d60208301846105a8565b9392505050565b600060208201905061066960008301846105a8565b92915050565b600081519050919050565b600082825260208201905092915050565b600061069682610713565b91506106a183610713565b9250827fffffffffffffffffffffffffffffffffffffffffffffffffffffffffffffffff038211156106d6576106d5610799565b5b828201905092915050565b60006106ec826106f3565b9050919050565b600073ffffffffffffffffffffffffffffffffffffffff82169050919050565b6000819050919050565b60005b8381101561073b578082015181840152602081019050610720565b8381111561074a576000848401525b50505050565b600061075b82610713565b91507fffffffffffffffffffffffffffffffffffffffffffffffffffffffffffffffff82141561078e5761078d610799565b5b600182019050919050565b7f4e487b7100000000000000000000000000000000000000000000000000000000600052601160045260246000fd5b6000601f19601f8301169050919050565b6107e2816106e1565b81146107ed57600080fd5b5056fe546f74616c206e756d626572206f66207761766572732c20616e64207468656972206164647265737365733aa2646970667358221220eeecec4925209c12d93c9876aaf941a3d0667c995e6a51c9fc15876639eb015f64736f6c63430008040033",
    "linkReferences": {},
    "deployedLinkReferences": {}
}